{
  "contractName": "Project",
  "abi": [
    {
      "inputs": [
        {
          "internalType": "uint256",
          "name": "_project_goal",
          "type": "uint256"
        }
      ],
      "stateMutability": "nonpayable",
      "type": "constructor"
    },
    {
      "inputs": [],
      "name": "current_amount",
      "outputs": [
        {
          "internalType": "uint256",
          "name": "",
          "type": "uint256"
        }
      ],
      "stateMutability": "view",
      "type": "function",
      "constant": true
    },
    {
      "inputs": [
        {
          "internalType": "address",
          "name": "",
          "type": "address"
        }
      ],
      "name": "donations",
      "outputs": [
        {
          "internalType": "uint256",
          "name": "",
          "type": "uint256"
        }
      ],
      "stateMutability": "view",
      "type": "function",
      "constant": true
    },
    {
      "inputs": [
        {
          "internalType": "uint256",
          "name": "",
          "type": "uint256"
        }
      ],
      "name": "donators",
      "outputs": [
        {
          "internalType": "address",
          "name": "",
          "type": "address"
        }
      ],
      "stateMutability": "view",
      "type": "function",
      "constant": true
    },
    {
      "inputs": [],
      "name": "project_address",
      "outputs": [
        {
          "internalType": "address payable",
          "name": "",
          "type": "address"
        }
      ],
      "stateMutability": "view",
      "type": "function",
      "constant": true
    },
    {
      "inputs": [],
      "name": "project_goal",
      "outputs": [
        {
          "internalType": "uint256",
          "name": "",
          "type": "uint256"
        }
      ],
      "stateMutability": "view",
      "type": "function",
      "constant": true
    },
    {
      "inputs": [],
      "name": "totalDonated",
      "outputs": [
        {
          "internalType": "uint256",
          "name": "",
          "type": "uint256"
        }
      ],
      "stateMutability": "view",
      "type": "function",
      "constant": true
    },
    {
      "inputs": [],
      "name": "donate",
      "outputs": [],
      "stateMutability": "payable",
      "type": "function",
      "payable": true
    },
    {
      "inputs": [],
      "name": "getNumberOfDonors",
      "outputs": [
        {
          "internalType": "uint256",
          "name": "",
          "type": "uint256"
        }
      ],
      "stateMutability": "view",
      "type": "function",
      "constant": true
    },
    {
      "inputs": [],
      "name": "balanceOfProject",
      "outputs": [
        {
          "internalType": "uint256",
          "name": "",
          "type": "uint256"
        }
      ],
      "stateMutability": "view",
      "type": "function",
      "constant": true
    }
  ],
  "bytecode": "0x608060405234801561001057600080fd5b5060405161080c38038061080c8339818101604052810190610032919061007a565b80600081905550506100a7565b600080fd5b6000819050919050565b61005781610044565b811461006257600080fd5b50565b6000815190506100748161004e565b92915050565b6000602082840312156100905761008f61003f565b5b600061009e84828501610065565b91505092915050565b610756806100b66000396000f3fe6080604052600436106100855760003560e01c806354015cc51161005957806354015cc5146101365780639f80e7c814610161578063ac62f5661461018c578063cc6cb19a146101c9578063ed88c68e1461020657610085565b8062b370441461008a5780630b4ae300146100b55780631594614f146100e05780631da327111461010b575b600080fd5b34801561009657600080fd5b5061009f610210565b6040516100ac9190610476565b60405180910390f35b3480156100c157600080fd5b506100ca61021a565b6040516100d79190610476565b60405180910390f35b3480156100ec57600080fd5b506100f5610220565b60405161010291906104d2565b60405180910390f35b34801561011757600080fd5b50610120610246565b60405161012d9190610476565b60405180910390f35b34801561014257600080fd5b5061014b610253565b6040516101589190610476565b60405180910390f35b34801561016d57600080fd5b5061017661025b565b6040516101839190610476565b60405180910390f35b34801561019857600080fd5b506101b360048036038101906101ae919061051e565b610261565b6040516101c0919061056c565b60405180910390f35b3480156101d557600080fd5b506101f060048036038101906101eb91906105b3565b6102a0565b6040516101fd9190610476565b60405180910390f35b61020e6102b8565b005b6000600154905090565b60005481565b600260009054906101000a900473ffffffffffffffffffffffffffffffffffffffff1681565b6000600480549050905090565b600047905090565b60015481565b6004818154811061027157600080fd5b906000526020600020016000915054906101000a900473ffffffffffffffffffffffffffffffffffffffff1681565b60036020528060005260406000206000915090505481565b60003410156102fc576040517f08c379a00000000000000000000000000000000000000000000000000000000081526004016102f39061063d565b60405180910390fd5b34600360003373ffffffffffffffffffffffffffffffffffffffff1673ffffffffffffffffffffffffffffffffffffffff168152602001908152602001600020600082825461034b919061068c565b925050819055506004339080600181540180825580915050600190039060005260206000200160009091909190916101000a81548173ffffffffffffffffffffffffffffffffffffffff021916908373ffffffffffffffffffffffffffffffffffffffff16021790555034600160008282546103c7919061068c565b92505081905550600054600154106103e2576103e16103e4565b5b565b600260009054906101000a900473ffffffffffffffffffffffffffffffffffffffff1673ffffffffffffffffffffffffffffffffffffffff166108fc600260015461042f91906106ef565b9081150290604051600060405180830381858888f1935050505015801561045a573d6000803e3d6000fd5b50565b6000819050919050565b6104708161045d565b82525050565b600060208201905061048b6000830184610467565b92915050565b600073ffffffffffffffffffffffffffffffffffffffff82169050919050565b60006104bc82610491565b9050919050565b6104cc816104b1565b82525050565b60006020820190506104e760008301846104c3565b92915050565b600080fd5b6104fb8161045d565b811461050657600080fd5b50565b600081359050610518816104f2565b92915050565b600060208284031215610534576105336104ed565b5b600061054284828501610509565b91505092915050565b600061055682610491565b9050919050565b6105668161054b565b82525050565b6000602082019050610581600083018461055d565b92915050565b6105908161054b565b811461059b57600080fd5b50565b6000813590506105ad81610587565b92915050565b6000602082840312156105c9576105c86104ed565b5b60006105d78482850161059e565b91505092915050565b600082825260208201905092915050565b7f4e6f7420656e6f75676820746f6b656e73000000000000000000000000000000600082015250565b60006106276011836105e0565b9150610632826105f1565b602082019050919050565b600060208201905081810360008301526106568161061a565b9050919050565b7f4e487b7100000000000000000000000000000000000000000000000000000000600052601160045260246000fd5b60006106978261045d565b91506106a28361045d565b92508282019050808211156106ba576106b961065d565b5b92915050565b7f4e487b7100000000000000000000000000000000000000000000000000000000600052601260045260246000fd5b60006106fa8261045d565b91506107058361045d565b925082610715576107146106c0565b5b82820490509291505056fea26469706673582212205a9890d4e13f844bddf94dae1ded229fe1cc743ed3baee68dd6095575d003a2164736f6c63430008110033",
  "immutableReferences": {},
  "source": "pragma solidity 0.8.17;\r\n\r\ncontract Project {\r\n    uint256 public project_goal;\r\n    uint256 public current_amount;\r\n    address payable public project_address;\r\n    mapping(address => uint256) public donations;\r\n    address[] public donators;\r\n\r\n    constructor(uint256 _project_goal) {\r\n        project_goal = _project_goal;\r\n    }\r\n\r\n    function totalDonated() external view returns (uint256) {\r\n        return current_amount;\r\n    }\r\n\r\n    function donate() external payable {\r\n        require(msg.value >= 0, \"Not enough tokens\");\r\n\r\n        // Transfer the amount.\r\n        donations[msg.sender] += msg.value;\r\n        donators.push(msg.sender);\r\n\r\n        current_amount += msg.value;\r\n        if (current_amount >= project_goal) {\r\n            releaseFunds();\r\n        }\r\n    }\r\n\r\n    function getNumberOfDonors() external view returns (uint256) {\r\n        return donators.length;\r\n    }\r\n\r\n    function balanceOfProject() public view returns (uint256) {\r\n        return address(this).balance;\r\n    }\r\n\r\n    function releaseFunds() private {\r\n        project_address.transfer(current_amount / 2);\r\n    }\r\n}\r\n",
  "sourcePath": "D:\\Software 1 2022-2\\Proyecto Final Frontend\\DonacionesAPP\\src\\blockchain\\contracts\\Project.sol",
  "compiler": {
    "name": "solc",
    "version": "0.8.17+commit.8df45f5f.Emscripten.clang"
  },
  "schemaVersion": "3.4.11",
  "updatedAt": "2023-01-03T00:59:25.565Z",
  "networkType": "ethereum",
  "devdoc": {
    "kind": "dev",
    "methods": {},
    "version": 1
  },
  "userdoc": {
    "kind": "user",
    "methods": {},
    "version": 1
  }
}